{
  "_format": "hh-sol-artifact-1",
  "contractName": "LegalDocumentManager",
  "sourceName": "contracts/LegalDocumentManager.sol",
  "abi": [
    {
      "anonymous": false,
      "inputs": [
        {
          "indexed": true,
          "internalType": "bytes32",
          "name": "docHash",
          "type": "bytes32"
        },
        {
          "indexed": true,
          "internalType": "address",
          "name": "owner",
          "type": "address"
        },
        {
          "indexed": false,
          "internalType": "string",
          "name": "cid",
          "type": "string"
        }
      ],
      "name": "DocumentStored",
      "type": "event"
    },
    {
      "anonymous": false,
      "inputs": [
        {
          "indexed": true,
          "internalType": "bytes32",
          "name": "docHash",
          "type": "bytes32"
        },
        {
          "indexed": true,
          "internalType": "address",
          "name": "viewer",
          "type": "address"
        }
      ],
      "name": "DocumentVerified",
      "type": "event"
    },
    {
      "inputs": [
        {
          "internalType": "bytes32",
          "name": "docHash",
          "type": "bytes32"
        }
      ],
      "name": "documentExists",
      "outputs": [
        {
          "internalType": "bool",
          "name": "",
          "type": "bool"
        }
      ],
      "stateMutability": "view",
      "type": "function"
    },
    {
      "inputs": [
        {
          "internalType": "bytes32",
          "name": "docHash",
          "type": "bytes32"
        }
      ],
      "name": "getDocument",
      "outputs": [
        {
          "internalType": "address",
          "name": "owner",
          "type": "address"
        },
        {
          "internalType": "string",
          "name": "cid",
          "type": "string"
        },
        {
          "internalType": "uint256",
          "name": "timestamp",
          "type": "uint256"
        }
      ],
      "stateMutability": "view",
      "type": "function"
    },
    {
      "inputs": [
        {
          "internalType": "bytes32",
          "name": "docHash",
          "type": "bytes32"
        },
        {
          "internalType": "string",
          "name": "cid",
          "type": "string"
        }
      ],
      "name": "storeDocument",
      "outputs": [],
      "stateMutability": "nonpayable",
      "type": "function"
    },
    {
      "inputs": [
        {
          "internalType": "bytes32",
          "name": "docHash",
          "type": "bytes32"
        }
      ],
      "name": "verify",
      "outputs": [
        {
          "internalType": "bool",
          "name": "",
          "type": "bool"
        }
      ],
      "stateMutability": "nonpayable",
      "type": "function"
    }
  ],
  "bytecode": "0x608060405234801561001057600080fd5b50610c3b806100206000396000f3fe608060405234801561001057600080fd5b506004361061004c5760003560e01c8063582e69d91461005157806375e366161461006d578063b10d6b411461009d578063cbfe6d41146100cf575b600080fd5b61006b600480360381019061006691906105d5565b6100ff565b005b61008760048036038101906100829190610635565b6102ea565b604051610094919061067d565b60405180910390f35b6100b760048036038101906100b29190610635565b61034c565b6040516100c693929190610782565b60405180910390f35b6100e960048036038101906100e49190610635565b6104c2565b6040516100f6919061067d565b60405180910390f35b600073ffffffffffffffffffffffffffffffffffffffff1660008085815260200190815260200160002060000160009054906101000a900473ffffffffffffffffffffffffffffffffffffffff1673ffffffffffffffffffffffffffffffffffffffff16146101a3576040517f08c379a000000000000000000000000000000000000000000000000000000000815260040161019a9061080c565b60405180910390fd5b60405180606001604052803373ffffffffffffffffffffffffffffffffffffffff16815260200183838080601f016020809104026020016040519081016040528093929190818152602001838380828437600081840152601f19601f8201169050808301925050505050505081526020014281525060008085815260200190815260200160002060008201518160000160006101000a81548173ffffffffffffffffffffffffffffffffffffffff021916908373ffffffffffffffffffffffffffffffffffffffff16021790555060208201518160010190816102869190610a67565b50604082015181600201559050503373ffffffffffffffffffffffffffffffffffffffff16837f86f9ecac539f45bc8805b569d3641c6a46eb7429c51da344f6e8e3bf820095e284846040516102dd929190610b75565b60405180910390a3505050565b6000806102f6836104c2565b90508015610343573373ffffffffffffffffffffffffffffffffffffffff16837f536e3e5b353ccc73d28014bd5d2ff03ced4b84fa024148b4949000af72f0a25460405160405180910390a35b80915050919050565b600060606000806000808681526020019081526020016000209050600073ffffffffffffffffffffffffffffffffffffffff168160000160009054906101000a900473ffffffffffffffffffffffffffffffffffffffff1673ffffffffffffffffffffffffffffffffffffffff16036103fa576040517f08c379a00000000000000000000000000000000000000000000000000000000081526004016103f190610be5565b60405180910390fd5b8060000160009054906101000a900473ffffffffffffffffffffffffffffffffffffffff168160010182600201548180546104349061088a565b80601f01602080910402602001604051908101604052809291908181526020018280546104609061088a565b80156104ad5780601f10610482576101008083540402835291602001916104ad565b820191906000526020600020905b81548152906001019060200180831161049057829003601f168201915b50505050509150935093509350509193909250565b60008073ffffffffffffffffffffffffffffffffffffffff1660008084815260200190815260200160002060000160009054906101000a900473ffffffffffffffffffffffffffffffffffffffff1673ffffffffffffffffffffffffffffffffffffffff1614159050919050565b600080fd5b600080fd5b6000819050919050565b61054d8161053a565b811461055857600080fd5b50565b60008135905061056a81610544565b92915050565b600080fd5b600080fd5b600080fd5b60008083601f84011261059557610594610570565b5b8235905067ffffffffffffffff8111156105b2576105b1610575565b5b6020830191508360018202830111156105ce576105cd61057a565b5b9250929050565b6000806000604084860312156105ee576105ed610530565b5b60006105fc8682870161055b565b935050602084013567ffffffffffffffff81111561061d5761061c610535565b5b6106298682870161057f565b92509250509250925092565b60006020828403121561064b5761064a610530565b5b60006106598482850161055b565b91505092915050565b60008115159050919050565b61067781610662565b82525050565b6000602082019050610692600083018461066e565b92915050565b600073ffffffffffffffffffffffffffffffffffffffff82169050919050565b60006106c382610698565b9050919050565b6106d3816106b8565b82525050565b600081519050919050565b600082825260208201905092915050565b60005b838110156107135780820151818401526020810190506106f8565b60008484015250505050565b6000601f19601f8301169050919050565b600061073b826106d9565b61074581856106e4565b93506107558185602086016106f5565b61075e8161071f565b840191505092915050565b6000819050919050565b61077c81610769565b82525050565b600060608201905061079760008301866106ca565b81810360208301526107a98185610730565b90506107b86040830184610773565b949350505050565b7f446f63756d656e74206578697374730000000000000000000000000000000000600082015250565b60006107f6600f836106e4565b9150610801826107c0565b602082019050919050565b60006020820190508181036000830152610825816107e9565b9050919050565b7f4e487b7100000000000000000000000000000000000000000000000000000000600052604160045260246000fd5b7f4e487b7100000000000000000000000000000000000000000000000000000000600052602260045260246000fd5b600060028204905060018216806108a257607f821691505b6020821081036108b5576108b461085b565b5b50919050565b60008190508160005260206000209050919050565b60006020601f8301049050919050565b600082821b905092915050565b60006008830261091d7fffffffffffffffffffffffffffffffffffffffffffffffffffffffffffffffff826108e0565b61092786836108e0565b95508019841693508086168417925050509392505050565b6000819050919050565b600061096461095f61095a84610769565b61093f565b610769565b9050919050565b6000819050919050565b61097e83610949565b61099261098a8261096b565b8484546108ed565b825550505050565b600090565b6109a761099a565b6109b2818484610975565b505050565b5b818110156109d6576109cb60008261099f565b6001810190506109b8565b5050565b601f821115610a1b576109ec816108bb565b6109f5846108d0565b81016020851015610a04578190505b610a18610a10856108d0565b8301826109b7565b50505b505050565b600082821c905092915050565b6000610a3e60001984600802610a20565b1980831691505092915050565b6000610a578383610a2d565b9150826002028217905092915050565b610a70826106d9565b67ffffffffffffffff811115610a8957610a8861082c565b5b610a93825461088a565b610a9e8282856109da565b600060209050601f831160018114610ad15760008415610abf578287015190505b610ac98582610a4b565b865550610b31565b601f198416610adf866108bb565b60005b82811015610b0757848901518255600182019150602085019450602081019050610ae2565b86831015610b245784890151610b20601f891682610a2d565b8355505b6001600288020188555050505b505050505050565b82818337600083830152505050565b6000610b5483856106e4565b9350610b61838584610b39565b610b6a8361071f565b840190509392505050565b60006020820190508181036000830152610b90818486610b48565b90509392505050565b7f4e6f7420666f756e640000000000000000000000000000000000000000000000600082015250565b6000610bcf6009836106e4565b9150610bda82610b99565b602082019050919050565b60006020820190508181036000830152610bfe81610bc2565b905091905056fea26469706673582212209e74fb38255ecdb1d5815f4eeed0f23ebdfc88b769682e12f2f54ac103cf812c64736f6c63430008140033",
  "linkReferences": {},
  "deployedLinkReferences": {}
}